:100000000040002091040000D1040000D30400004F
:1000100000000000000000000000000000000000E0
:10002000000000000000000000000000D5040000F7
:100030000000000000000000D7040000D904000008
:10004000DB040000DB0400000D080000DB040000FE
:10005000DB04000000000000DB040000DB04000003
:10006000DB040000DB040000DB040000DB04000014
:10007000DB040000DB040000DB040000DB04000004
:10008000DB0400008D080000DB040000DB0400003E
:10009000DB040000DB040000DB040000DB040000E4
:1000A000DB040000DB040000000000000000000092
:1000B0000000000000000000000000000000000040
:1000C000054B0648033310B51B1A062B03D9044B06
:1000D000002B00D0984710BD740000207400002051
:1000E000000000000648074910B5091A8910CB0F17
:1000F0005918491003D0044B002B00D0984710BD6D
:1001000074000020740000200000000010B5074CAF
:100110002378002B09D1FFF7D3FF054B002B02D02A
:10012000044800E000BF0123237010BD74000020CC
:1001300000000000180D0000094B10B5002B03D083
:100140000849094800E000BF08480368002B02D1B5
:10015000FFF7C8FF10BD064B002BF9D09847F7E713
:100160000000000078000020180D00007000002042
:1001700000000000164B002B00D1144B9D4640227E
:1001800092029A1A924600218B460F461348144A4F
:10019000121A00F033FD0F4B002B00D098470E4B86
:1001A000002B00D098470020002104000D000D48CE
:1001B000002802D00C4800E000BF00F0F9FC20004D
:1001C000290000F073FB00F0DDFCC04600000800D1
:1001D000004000200000000000000000740000202B
:1001E000FC000020000000000000000010B500210D
:1001F00000F0B8FB10BD10B5012100F0B3FB10BD3D
:10020000F7B505000F00160000240193BC420DDA7B
:100210002800FFF7EBFF300000F02AFB2800FFF773
:10022000EAFF019800F024FB0134EFE7F7BD10B5B9
:100230000121042000F096FB10BD10B50021042020
:1002400000F090FB10BD000010B5104C10492000CC
:1002500000F0B2F80A220221200000F014F90D4942
:10026000200000F0BBF81720FFF7C0FFFFF7DFFF0B
:10027000FA20C00000F0FCFAFFF7DFFF1720FFF7BD
:10028000BAFF0549200000F0A9F810BD9400002035
:10029000380C00004B0C00004D0C000010B500F0B5
:1002A000CFFA084C2368C01A074B984204D9FFF7CD
:1002B000CBFF00F0C5FA2060FA20800000F0D8FAE9
:1002C00010BDC04690000020FF5B2605E12110B55F
:1002D000234C4902200000F00BF92249200000F0D5
:1002E0007DF80021042000F03DFB0121042000F0F6
:1002F0001BFBA021E222C905D20088581A4B0340FB
:10030000C020800003438B501520012100F02AFB00
:100310000121152000F008FB0121162000F022FB2E
:100320000121162000F000FB0121172000F01AFB2C
:100330000121172000F0F8FAC82303211A00162023
:10034000FFF75EFFFFF780FF00F07AFA074B1860B7
:100350001620FFF74BFF0649200000F03FF810BDC4
:10036000940000206D0C0000FFF8FFFF90000020BB
:100370008A0C0000F7B506000D000C008B180193E5
:10038000019B671B9C4207D0336821781B683000B3
:10039000984701340028F3D13800FEBD70B5050040
:1003A0000C00081E07D000F031FC2B6802005B68CF
:1003B00021002800984770BD10B5FFF7EFFF10BD72
:1003C00010B503681B68984710BD000010B50249BE
:1003D000FFF7E4FF10BDC046CC0C000070B505006F
:1003E000FFF7DCFF04002800FFF7F0FF001970BDE5
:1003F000F0B5160000228DB002AB053301900D0060
:10040000DA77012E00D80A260BAC2800310000F064
:1004100087FB0F00CBB228003100009300F0FAFAFE
:10042000FBB237330500013CDBB2092F02D8009B39
:100430003033DBB22370002DE7D121000198FFF7A4
:10044000ADFF0DB0F0BDF8B506000C00151E04D1CF
:100450000368C9B21B68984714E0D2B20A2D0DD1C7
:100460002A0000290ADA2D21FFF7AAFF61420700BE
:100470002A003000FFF7BCFF381803E021003000ED
:10048000FFF7B6FFF8BD10B5FFF7DDFF10BD0000A8
:1004900003210A4802680A430260094802680A43C5
:1004A00002600849084A094B9B1A03DD043BC858FF
:1004B000D050FBDC00F012F8FFF75CFE2405004092
:1004C00054050040240D00000000002074000020AE
:1004D000FEE7FEE7FEE7FEE7FEE7FEE7014A024B26
:1004E0001A6070470024F4000000002001207047CB
:1004F00010B503681322DB69984710BD70470000F0
:100500000369054A9950FC331A6A002AFCD000227C
:1005100001201A627047C0461C050000030010B598
:100520005C331A781F2313400122110099400D4BB0
:100530000424D967C221036989005C505A60DA60DB
:10054000A0220021D20099500122074952425A505C
:10055000064914305A500C395A5008315A5000F09C
:100560002DFA10BD04E100E00C05000014050000A8
:1005700010B5143000F034FA10BD10B5143000F08E
:1005800035FA10BD10B5143000F01CFA10BD000093
:10059000030070B55E331C780269604BD4500300D1
:1005A0005D331C785E4BD450030061331C785D4B87
:1005B000012C0CD105005F352E78A225ED00565197
:1005C000050060352E78A125ED00565100E000248D
:1005D000D4509623DB00994238D996231B019942C7
:1005E00037D996235B01994236D996239B019942CC
:1005F00034D9E1239B01994232D99623DB019942F8
:1006000031D9E123DB0199422FD996231B0299426C
:100610002DD9E1231B0299422BD996235B029942E3
:1006200029D9E1235B02994227D9E1239B02994210
:1006300025D93D4B994224D9E123DB02994223D9A4
:10064000E1231B03994221D8384B21E09E23DB0292
:100650001EE09D231B031BE0354B19E0354B17E0D3
:10066000EC239B0314E0344B12E0344B10E0344B8A
:100670000EE0344B0CE0344B0AE0344B08E0344BD2
:1006800006E08023DB0403E0324B01E080235B05BE
:100690003149002453500423243953501100FC31B4
:1006A000CC600C62C1210134890014605C3094601C
:1006B000535003781F202200D9B208408240803472
:1006C0002648FF345BB20251002B13DA0F230B4094
:1006D000083B234C9B089B001B1903242140A1408D
:1006E000FC348C40DD69A543C0248C4021002943A3
:1006F000D96111E0194C9B089B001B190324214070
:10070000A140C025FC348C40AD005E59A643C024F6
:100710008C40210031435951026070BD0C0500002E
:10072000140500006C05000090D0030000D0BE0E40
:1007300000B013000050270000A04E0000F075002C
:1007400000509D0000F0EB0000903A0100E0D7015E
:1007500000B0AF0300705F072405000000E100E077
:1007600000ED00E0F0B585B01D000AAB1B78040079
:1007700001930BAB1B780F0002930CAB1B78160098
:10078000039300234360FA239B008360134BAD0067
:1007900008330360143000F0FBF8230022005C33C0
:1007A00027611E700E4B5D32E95820001170019ACE
:1007B0009200D15822005E321170029A9200D158F4
:1007C00022005F321170039A9200D25823006033E6
:1007D0001A7001225A7005B0F0BDC046E00C00004E
:1007E000B00C0000036910B51A00FC32D268040096
:1007F000002A0AD0A322D20099581430C9B200F0BE
:10080000D2F800222369FC33DA6010BD10B502482B
:10081000FFF7E8FF10BDC046940000201FB500237D
:10082000022202930133009301929B18024903486C
:10083000FFF798FF05B000BD0020004094000020A5
:10084000084A0949094B10B51B688858FA22190A49
:100850001B0618439200002300F068F94904C00BFE
:10086000084310BD0405000000100140F8000020FE
:1008700070B5041E09D0FFF7E3FF050000F014F87F
:10088000FFF7DEFF401B8442F8D870BD0022044B06
:100890009A60044A13680133DBB213607047C046A4
:1008A000FC100140F80000207047704710B500F0C0
:1008B00011F8FFF7FAFF0120FFF7DAFFFFF706FD57
:1008C000FFF7ECFC024B002BFAD000E000BFF7E78B
:1008D00000000000C421114A89005058104B034009
:1008E000C020000203435350802391399B02FF39FB
:1008F00053501360A321802301220020DB05C9008F
:100900005A509A60074B10395850C120022180007C
:100910001950403019501A607047C04600E100E09D
:10092000FF00FFFF0010014000B5062816D80C4A52
:1009300083009B58032911D8A0220800C133FF333C
:10094000D2059B0000F05CF802080406002104E0D8
:100950000C2102E0042100E00321D15000BDC0467B
:10096000B00C000006280DD8074B8000C2580123A8
:100970009340A022D205002901D1044901E0A12120
:10098000C90053507047C046B00C00000C05000071
:1009900010B540220021040000F030F900232000AF
:1009A0002364636410BD3F23026C10B5541C2340C4
:1009B000446C9C4201D08154036410BD0023036445
:1009C00043647047436C026C934206D03F21C25C83
:1009D00001330B404364100001E0012040427047A6
:1009E000036C406C181A00D540307047436C026CA1
:1009F000934201D0C05C01E00120404270470000FA
:100A000002B4714649084900095C49008E4402BCA1
:100A10007047C046002243088B4274D303098B42BF
:100A20005FD3030A8B4244D3030B8B4228D3030CBE
:100A30008B420DD3FF22090212BA030C8B4202D360
:100A40001212090265D0030B8B4219D300E0090A88
:100A5000C30B8B4201D3CB03C01A5241830B8B4291
:100A600001D38B03C01A5241430B8B4201D34B037A
:100A7000C01A5241030B8B4201D30B03C01A5241DF
:100A8000C30A8B4201D3CB02C01A5241830A8B4264
:100A900001D38B02C01A5241430A8B4201D34B024D
:100AA000C01A5241030A8B4201D30B02C01A5241B1
:100AB000CDD2C3098B4201D3CB01C01A5241830965
:100AC0008B4201D38B01C01A524143098B4201D39F
:100AD0004B01C01A524103098B4201D30B01C01ACA
:100AE0005241C3088B4201D3CB00C01A5241830844
:100AF0008B4201D38B00C01A524143088B4201D371
:100B00004B00C01A5241411A00D2014652411046D0
:100B10007047FFE701B5002000F006F802BDC046AF
:100B20000029F7D076E770477047C046F0B54F46CA
:100B30004646C0B41604360C9946330005042C0C06
:100B4000070C150C63437E436F4365431C0CAD19C2
:100B500064199C46A64203D980235B029846474409
:100B60006346250CEF191D044B464A4343432D0CA5
:100B7000240464199918C91920000CBC90469946A0
:100B8000F0BDC046084B10B50400002B02D0002178
:100B900000E000BF054B1868836A002B00D098471F
:100BA000200000F03BF8C04600000000140D0000DB
:100BB0000E4B70B500251E000D4CE41AA410A54282
:100BC00004D0AB00F35898470135F8E700F028F857
:100BD000084B00251E00084CE41AA410A54204D0BE
:100BE000AB00F35898470135F8E770BD640000206A
:100BF00064000020640000206C00002003008218C4
:100C0000934202D019700133FAE770470023C25CA7
:100C10000133002AFBD1581E70470000FEE7C04692
:100C2000F8B5C046F8BC08BC9E467047F8B5C0464B
:100C3000F8BC08BC9E4670474F70656E696E6720B1
:100C400076616C766520666F722000730056616C69
:100C5000766520636C6F73656420E280942063790D
:100C6000636C6520636F6D706C657465003D3D3D20
:100C7000205761746572696E672073797374656D4E
:100C800020626F6F74203D3D3D0052756E6E696E3F
:100C90006720E28094206E657874207761746572B5
:100CA000206379636C6520696E203234680000002F
:100CB00008000000090000000A0000000B0000000E
:100CC0001500000016000000170000000D0A006E5D
:100CD000616E00696E66006F7666002E000000008F
:100CE0000000000000000000010500007503000086
:100CF00071050000850500007B050000FD04000073
:100D0000F1040000910500001D050000ED04000045
:0C0D100043000000040000200000000070
:080D1C0058F4FF7F0100000004
:100D24000024F400000000000000000000000000A7
:100D340000000000000000000000000000000000AF
:100D440000000000100D0000000000000000000082
:100D5400000000000000000000000000000000008F
:100D6400000000000000000000000000000000007F
:100D7400000000000000000000000000000000006F
:100D840000000000390100001D0800000D010000F2
:040D9400000000005B
:040000030000049164
:00000001FF
